:020000040800F2
:1000000000500020012E00080D2D00080F2D0008C3
:10001000132D0008152D0008172D00080000000002
:10002000000000000000000000000000192D000882
:100030001B2D0008000000001D2D00081F2D0008CA
:10004000492E0008492E0008492E0008492E0008B4
:10005000492E0008492E0008272D0008312D0008E0
:100060003B2D0008452D00084F2D0008492E0008A3
:10007000492E0008492E0008492E0008492E000884
:10008000492E0008492E0008492E0008492E000874
:10009000492E0008492E0008492E0008592D000855
:1000A000492E0008492E0008492E0008492E000854
:1000B000492E0008492E0008492E0008492E000844
:1000C000492E0008492E0008492E0008492E000834
:1000D000492E0008492E0008492E0008492E000824
:1000E0007F2D0008492E0008492E0008000000005E
:1000F0000000000000000000000000000000000000
:0C01000000000000000000005FF808F1A3
:10010C0010B5054C237833B9044B13B10448AFF345
:10011C0000800123237010BD70000020000000003F
:10012C003437000808B5034B1BB103490348AFF340
:10013C00008008BD00000000740000203437000867
:10014C00034613F8012B002AFBD1181A013870470B
:10015C0070B592B001F024FB02F0A0FD02F08AFD14
:10016C003B4E00224FF40051304601F081FF394BD9
:10017C009A6942F010029A619B6903F01003009394
:10018C00009B002510954FF400530E9303231193FD
:10019C0001240F940EA9304601F05AFE2246082184
:1001AC002D4800F0F9F82D4B93E803000C908DF8D6
:1001BC003410FF2000F030FD4C2000F0E8FC202033
:1001CC0000F0F2FC082000F0D4FC052000F0E5FC67
:1001DC000CA9204600F03EFD0A222946204600F0DC
:1001EC00EFFC204600F0B7FC022000F0A3FC8DF8D9
:1001FC002F500A95204600F0E7FA17E0144C4FF404
:10020C000051204601F03AFF4FF40051204601F016
:10021C0035FF00230DF12F023A21114800F0F5FBB8
:10022C00BFF35B8F00230A93BFF35B8F00F032FDAB
:10023C000128E3D00DF1070102A800F03DFD0446B2
:10024C0000F02FFD2146074800F016FAD6E700BF54
:10025C000010014000100240000801405037000817
:10026C00080200204C37000808B500F041FB08BD1F
:10027C00034610F47F4F19D1002023F4706222F052
:10028C000F0292B20AB140F0040023F44C5222F057
:10029C00330292B20AB140F0020023F4AA4323F0D5
:1002AC0055039BB20BB140F0010070470820E4E706
:1002BC0010B584B00C4611461F4B984230D012D862
:1002CC00A3F5006398421CD003F58063984222D1B9
:1002DC001A4B9A6942F008029A619B6903F0080371
:1002EC000193019B17E0164B984214D1134B9A695A
:1002FC0042F020029A619B6903F020030393039B55
:10030C0009E00E4B9A6942F004029A619B6903F072
:10031C0004030093009B0C6001F09AFD04B010BD27
:10032C00064B9A6942F010029A619B6903F0100324
:10033C000293029BEFE700BF001001400010024047
:10034C000014014070B50C4616461D460846FFF7D2
:10035C008FFF75B1094B43F82050204602F048FC42
:10036C0004460022314601F055FF204601F086FF7D
:10037C0070BD024B002243F82020F9E78C000020CE
:10038C0008B5FFF775FF034B53F820300BB1002075
:10039C00984708BD8C00002008B5D2B201F068FE69
:1003AC0008BD000010B586B0002304930F4CA36960
:1003BC0043F00803A361A36903F008030093009BB7
:1003CC00C0230293122303930323059302A9084825
:1003DC0001F03EFDE36943F40013E361E36903F4C8
:1003EC0000130193019B06B010BD00BF001002402A
:1003FC00000C014008B5FFF7D5FF0B480B4B036011
:10040C000B4B436000238360C3604FF48042026156
:10041C0043618361C361036200F098FE00B908BDBB
:10042C0002F027FCFBE700BF7401002000540040E1
:10043C00801A060010B584B04FF47A7402940193BC
:10044C00009201230A4600FA03F1024801F004F875
:10045C0004B010BD7401002008B50123FFF7EAFFBA
:10046C0008BD70B582B014461D469DF81860002377
:10047C008DF807300DF10702FFF7EEFF0123B340B3
:10048C00013BA91B01318B409DF8072013400B4108
:10049C00237002B070BD10B582B001240094FFF738
:1004AC00E0FF02B010BD00002DE9F04184B004AFB4
:1004BC0080460D4616461C46083303F4FC73ADEB20
:1004CC00030D8DF81010224631460DF1110002F08B
:1004DC00DBFC4FF47A7302930194009601232A46B5
:1004EC0008FA03F1024800F005FFBD46BDE8F081B3
:1004FC007401002000B583B08DF8072001230DF1A5
:10050C000702FFF7D1FF03B05DF804FBF0B583B031
:10051C0004460D4616461F4600238DF807300DF194
:10052C000702FFF799FF77B1012202FA06F69DF850
:10053C0007203243D2B28DF8072029462046FFF718
:10054C00D9FF03B0F0BD0122B2409DF8073023EA79
:10055C000202F0E730B587B000240494134B9A697B
:10056C0042F480529A619A6902F480520092009A85
:10057C009A6942F004029A619B6903F004030193A7
:10058C00019BA02302930223039303230593084D9D
:10059C0002A9284601F05CFC4023029303940494C6
:1005AC0002A9284601F054FC07B030BD00100240EF
:1005BC000008014000B583B01448154B03604FF49C
:1005CC008273436000238360C360036143614FF413
:1005DC00007282611022C2610362436283620A2349
:1005EC00C3620C4B9A6942F480529A619B6903F482
:1005FC0080530193019B01F0C2FE20B9FFF7AAFFC3
:10060C0003B05DF804FB02F034FBF7E7CC000020EC
:10061C00003001400010024000B587B08DF80F008B
:10062C004FF0FF33009301230DF117020DF10F0171
:10063C00034801F0E2FE9DF8170007B05DF804FBDB
:10064C00CC00002000B5B3B00A460146684602F063
:10065C0047FC002802DC33B05DF804FB6846FFF76A
:10066C006FFD6FF07F4382B26946024801F050FD86
:10067C00F1E700BF240100200FB400B583B004A93A
:10068C0051F8040B0191FFF7DDFF03B05DF804EBAB
:10069C0004B0704700B587B00023049303F1804386
:1006AC0003F504339A6942F004029A619B6903F0E2
:1006BC0004030193019B4FF4006302930223039301
:1006CC00059302A9024801F0C3FB07B05DF804FBD7
:1006DC000008014030B597B0002412941394149480
:1006EC0015941094119409940A940B940C940D94F1
:1006FC000E940F9420252A46214601A802F0D2FB25
:10070C002F48304B036040234360856040F2E73351
:10071C00C36004614461846102F078F800283DD123
:10072C004FF48053129312A9254802F04EF9002879
:10073C0037D1234802F084F8002835D100231093D8
:10074C00119310A91E4802F0DDF900282FD1602367
:10075C00099340F2F3130A9300230B930D930E931A
:10076C000F930C2209A9164802F0B6F810BB00230F
:10077C00019302930393049305934FF40052069252
:10078C00089301A90E4802F0E0F9B0B9FFF782FF17
:10079C000C210B4802F098F917B030BD02F069FA41
:1007AC00BEE702F066FAC4E702F063FAC6E702F0AD
:1007BC0060FACCE702F05DFAD9E702F05AFAE5E705
:1007CC00C8010020002C0140014B1B6818647047C5
:1007DC00C801002084B003681C4A934213D0B3F1C3
:1007EC00804F1CD01A4A934225D01A4A934214D1F6
:1007FC00194BDA6942F00402DA61DB6903F0040395
:10080C000393039B09E0144B9A6942F400629A61CA
:10081C009B6903F400630093009B04B0704703F5DD
:10082C000433DA6942F00102DA61DB6903F0010397
:10083C000193019BF1E7084BDA6942F00202DA619D
:10084C00DB6903F002030293029BE6E7002C0140F4
:10085C0000040040000800400010024010B582B0B7
:10086C000C4606236A463B2100F0C0F8A0B99DF85F
:10087C0000209DF8013043EA022323809DF80220DA
:10088C009DF8033043EA022363809DF804209DF811
:10089C00053043EA0223A38002B010BD08B50B4615
:1008AC000022382100F0B9F808BD7047F0B585B0CA
:1008BC000646002403944FF480650095084B019381
:1008CC000294084F6A4629463846FFF7F1FC334636
:1008DC00224629463846FFF735FD204605B0F0BDC7
:1008EC0000001110000C014008B500F07DFF08BDA0
:1008FC0030B585B03B4C002565702570A57168201E
:10090C00A0702A466B21FFF7F5FD6420FFF7ECFF82
:10091C0001226B21A078FFF7EDFD03221A21A078AC
:10092C00FFF7E8FD2A461921A078FFF7E3FD8DF8C3
:10093C0007500DF107021B21A078FFF78DFD9DF8E4
:10094C00072002F01F021B21A078FFF7D3FD2A46D7
:10095C001B21A078FFF7CEFD63789DF8072042EAB3
:10096C00C302D2B21B21A078FFF7C4FD0DF1070220
:10097C001C21A078FFF770FD9DF8072002F01F02E4
:10098C001C21A078FFF7B6FD9DF8072002F0E702C6
:10099C001C21A078FFF7AEFD23789DF8072042EAD2
:1009AC00C302D2B21C21A078FFF7A4FD2A4637213E
:1009BC00A078FFF79FFD01223821A078FFF79AFD60
:1009CC0001212046FFF76AFF02A92046FFF746FFE8
:1009DC00044610B1204605B030BD0348FFF766FF52
:1009EC00F8E700BF08020020B708000810B53F2B3D
:1009FC0007D80024DBB28078FFF71CFD18B920461D
:100A0C0010BD0224F6E70324F9E708B58078FFF758
:100A1C0042FD00B908BD0320FCE708B58078FFF75C
:100A2C0075FD00B908BD0320FCE708B5FFF7F4FD20
:100A3C0008BD000038B504460D46002210211148AF
:100A4C00FFF7AAFC1F2C0ED804F01F0040F020006A
:100A5C00FFF7EBFF2846FFF7E8FF012210210948BA
:100A6C00FFF79AFC38BD2046FFF7DFFF04F11F03A8
:100A7C00DBB2022BF1D9FF2CEFD02846FFF7D5FFC4
:100A8C00EBE700BF0008014070B505460C46164662
:100A9C00002210210A48FFF77FFC2846FFF7C5FF0C
:100AAC00731EDDB22EB114F8010BFFF7BEFF2E46FC
:100ABC00F6E7012210210248FFF76EFC70BD00BF63
:100ACC000008014070B505460C4616460022102160
:100ADC000A48FFF761FC2846FFF7A7FF731EDDB23B
:100AEC0036B1FF20FFF7A1FF04F8010B2E46F5E706
:100AFC00012210210148FFF74FFC70BD0008014096
:100B0C0038B504460A4D002210212846FFF744FC54
:100B1C0004F01F00FFF789FFFF20FFF786FF044654
:100B2C00012210212846FFF737FC204638BD00BFB4
:100B3C000008014010B504460020FFF7E1FF022C2D
:100B4C0005D000F0FD010020FFF774FF10BD40F050
:100B5C000201C9B2F7E710B504460020FFF7D0FF39
:100B6C0000F0FE0104F0010421430020FFF762FFB6
:100B7C0010BD10B504460020FFF7C2FF00F0F301D2
:100B8C0004F00C0421430020FFF754FF10BD08B5FE
:100B9C0001460520FFF74EFF08BD08B5811EC9B2FE
:100BAC000320FFF747FF08BD10B504460620FFF7EA
:100BBC00A7FF00F0D70121430620FFF73BFF10BD34
:100BCC002DE9F04104460E4617460220FFF798FF28
:100BDC004FF0010808FA04F1CDB240EA050101F02A
:100BEC003F010220FFF726FF04F1110007F03F013F
:100BFC00C0B2FFF71FFF4046FFF782FF464507D004
:100C0C0020EA0501C9B20120FFF714FFBDE8F0810D
:100C1C0045EA0001C9B2F6E710B5052804D9002150
:100C2C000120FFF707FF10BD04460120FFF768FF06
:100C3C00012303FA04F420EA0404E1B21846FFF796
:100C4C00F9FEF0E708B50320FFF75AFF0230C0B2F7
:100C5C0008BD000038B504460D4605280ED80228FC
:100C6C000FD201280CD8FFF7EDFF0246084B185D98
:100C7C00294640F02000FFF707FF01E00628F2D0DC
:100C8C0038BD0978024B185CFFF7D4FEF8E700BFBB
:100C9C005837000808B51720FFF732FF00F00300A3
:100CAC0008BD08B50720FFF72BFF40F07001C9B253
:100CBC000720FFF7BFFE08BD70B506460D4607209E
:100CCC00FFF71EFFC0F34204052C04D900232B7040
:100CDC00FF24204670BD04F11100FFF711FF2870AE
:100CEC000028F6D0024631466120FFF7EBFEF0E714
:100CFC0003685A6912F4806F01D1002070476FF4B9
:100D0C0080625A6100230363202280F83D2080F822
:100D1C003E30026C42F00402026480F83C30012048
:100D2C0070472DE9F04107460D4690461E4622E0DD
:100D3C0000F054FD069BC01AB04200D8DEB9002367
:100D4C003B63202287F83D2087F83E303A6C42F016
:100D5C0020023A6487F83C3001201AE03B689C6919
:100D6C0025EA0404A4B2B4FA84F46409A0450FD1B2
:100D7C00B6F1FF3FDCD1C5F30743012BEED13B6845
:100D8C005C6925EA0404A4B2B4FA84F46409EDE7BE
:100D9C000020BDE8F0812DE9F04105460E461746CE
:100DAC0098463DE01A6842F400721A602B686FF4A2
:100DBC0080625A6100232B63202285F83D2085F840
:100DCC003E302A6C42F004022A6485F83C30012043
:100DDC0034E000F003FDA0EB0800B84200D8FFB9E6
:100DEC0000232B63202285F83D2085F83E302A6CA9
:100DFC0042F020022A6485F83C3001201EE02B686A
:100E0C009C6926EA0404A4B2003C18BF0124A4B1D6
:100E1C002B685A6912F4806FC4D1B7F1FF3FD8D157
:100E2C00C6F30743012BEAD12B685C6926EA04045C
:100E3C00A4B2003C18BF0124E9E70020BDE8F08112
:100E4C0070B504460D46164623685B6913F0800F97
:100E5C001CD12046FFF74CFFD0B9B5F1FF3FF3D0C2
:100E6C0000F0BCFC801BA84201D8002DECD1002363
:100E7C002363202284F83D2084F83E30226C42F01B
:100E8C002002226484F83C30012000E0002070BD78
:100E9C000120FCE72DE9F04385B004460D46914650
:100EAC0098460C9E0D9F0368196841F48071196077
:100EBC000097334600224FF00111FFF732FF18B1B3
:100ECC00012005B0BDE8F083236805F0FE051D6127
:100EDC003B46324620492046FFF75DFF08B1012012
:100EEC00EFE70023039323685A6903929B690393EA
:100EFC00039B3A4631462046FFF7A2FF38B9B8F1BA
:100F0C00010F0FD123685FFA89F61E61D9E7236CB4
:100F1C00042B01D00120D4E72268136843F400733A
:100F2C001360F7E723684FEA19221A613A463146F3
:100F3C002046FFF785FF20B923685FFA89F61E610A
:100F4C00BFE7236C042B01D00120BAE72268136899
:100F5C0043F400731360F7E7020001002DE9F0473A
:100F6C0084B004460D4616469946DDF830800D9F38
:100F7C000268136843F4806313600368196841F4D2
:100F8C00807119600097434600224FF00111FFF762
:100F9C00C8FE18B1012004B0BDE8F0875FFA85FAED
:100FAC00236805F0FE051D613B4642463649204646
:100FBC00FFF7F1FE08B10120EDE70023039323684E
:100FCC005A6903929B690393039B3A464146204618
:100FDC00FFF736FF80B9B9F1010F18D12368F6B2CB
:100FEC001E613A4641462046FFF72AFF68B3236C40
:100FFC00042B24D00120CEE7236C042B01D001203C
:10100C00C9E72268136843F400731360F7E7236899
:10101C00320A1A613A4641462046FFF711FF18B9C9
:10102C002368F6B21E61DCE7236C042B01D001208F
:10103C00B1E72268136843F400731360F7E7226882
:10104C00136843F400731360D4E72268136843F405
:10105C00807313600097434600224FF00111204625
:10106C00FFF75FFE08B1012095E722684AF0010303
:10107C0013613B46424604492046FFF78CFE00288C
:10108C0089D0012087E700BF0200010070B504463B
:10109C000D46164623685B6913F0040F1CD12046DD
:1010AC00FFF726FED0B9B5F1FF3FF3D000F096FB69
:1010BC00801BA84201D8002DECD1002323632022F1
:1010CC0084F83D2084F83E30226C42F020022264E9
:1010DC0084F83C30012000E0002070BD0120FCE7CA
:1010EC0070B505460C4616462B68596911F0400F31
:1010FC0029D1596911F0100F15D100F06FFB801B2D
:10110C00A04201D8002CEFD100232B63202285F8BC
:10111C003D2085F83E302A6C42F020022A6485F886
:10112C003C30012070BD6FF010025A6100232B631C
:10113C00202285F83D2085F83E302A6C2A6485F8FB
:10114C003C300120EEE70020ECE77047002800F06F
:10115C00C280F8B5044690F83D30002B6DD02423A6
:10116C0084F83D302268136823F00103136000F00B
:10117C005FFE62685A4B9A4264D85A4B98428CBFB5
:10118C0000230123002B40F0A880574DA5FB003510
:10119C00AF0C2668716821F03F0141EA95417160FE
:1011AC0021680B6A23F03F0365684D4A95424FD87E
:1011BC007A1C13430B622568E96921F44F4121F035
:1011CC00FF016368464A93424CD801385B00B0FB80
:1011DC00F3F0013040F6FC73184278D0C0F30B03E7
:1011EC000B43EB6121680B6823F0C003E269206AB2
:1011FC00024313430B6021688B6823F4034323F0F1
:10120C00FF032269E068024313438B602168CB68BB
:10121C0023F0FF036269A06902431343CB60226889
:10122C00136843F00103136000202064202384F82A
:10123C003D30206384F83E00F8BD80F83C30FFF769
:10124C0084FF8CE7294B98428CBF0023012399E73C
:10125C004FF4967202FB07F2254DA5FB0252920940
:10126C000132A6E7A268BAB9461E03EB4307B6FBE8
:10127C00F7F60136C6F30B06B6FA86F6760946BBC8
:10128C00C2B9421E03EB4303B2FBF3F20132C2F3C9
:10129C000B0242F40043A3E7461E03EB830707EB64
:1012AC008707B6FBF7F60136C6F30B06B6FA86F6D9
:1012BC007609E4E7421E03EB830303EB8303B2FBE3
:1012CC00F3F20132C2F30B0242F4404388E70423E9
:1012DC0086E7012384E7012070470120ACE700BFBB
:1012EC00A08601007F841E0083DE1B43FF083D00A7
:1012FC00D34D62102DE9F04383B004460F4690465F
:10130C0099460C9E00F06AFA054694F83D00C0B26E
:10131C00202803D0022003B0BDE8F08300951923E8
:10132C0001224B492046FFF7FCFC002840F0898045
:10133C0094F83C30012B00F08680012384F83C307B
:10134C0023681A6812F0010F03D11A6842F00102E7
:10135C001A602268136823F400631360212384F855
:10136C003D30402384F83E30002323640A9B6362A3
:10137C00BDF82C306385638D2385364BE362019574
:10138C0000964B46424639462046FFF783FD00281F
:10139C005BD1238D002B35D02A4631462046FFF7F2
:1013AC004FFD20BB626A236812781A61616A4B1C7C
:1013BC006362228D013A92B22285638D9BB2013B0E
:1013CC009BB263852368586910F0040FE1D0002AA2
:1013DC00DFD04A781A61636A01336362238D013B63
:1013EC002385638D9BB2013B9BB26385D1E7236C54
:1013FC00042B01D001208EE72268136843F400739C
:10140C001360F7E72A4631462046FFF73FFE50B1FE
:10141C00236C042B01D001207DE72268136843F470
:10142C0000731360F7E72268136843F400731360CA
:10143C00202384F83D30002384F83E3084F83C307F
:10144C0069E7022067E7022065E7012063E700BF38
:10145C00020010000000FFFF2DE9F04387B00446A6
:10146C000F4690469946109E00F0B8F9054694F840
:10147C003D00C0B2202804D00227384607B0BDE892
:10148C00F0830095192301228F492046FFF749FC70
:10149C00002840F0518194F83C30012B00F04E8133
:1014AC00012384F83C3023681A6812F0010F03D131
:1014BC001A6842F001021A602268136823F4006370
:1014CC001360222384F83D30402384F83E300023FF
:1014DC0023640E9B6362BDF83C306385638D23856A
:1014EC007A4BE362019500964B46424639462046BC
:1014FC00FFF734FD0746002840F02281238D5BB9AD
:10150C00029323685A6902929A690292029A1A68A3
:10151C0042F400721A60A5E0012B0FD0022B21D0EF
:10152C002268136843F480631360002305932368D7
:10153C005A6905929B690593059B93E02268136891
:10154C0023F48063136072B60023039323685A69F3
:10155C0003929A690392039A1A6842F400721A6011
:10156C0062B67FE02268136843F40063136072B6BE
:10157C000023049323685A6904929A690492049A8A
:10158C001A6822F480621A6062B66BE02A46314611
:10159C002046FFF7A5FD002840F0D48023681A6987
:1015AC00636A1A70636A01336362238D013B23857E
:1015BC00638D9BB2013B9BB2638553E00095334630
:1015CC00002243492046FFF7ACFB002840F0BC80CA
:1015DC0072B62268136843F40073136023681A69A7
:1015EC00636A1A70636A01336362238D013B23853E
:1015FC00638D9BB2013B9BB2638562B623681A690B
:10160C00636A1A70636A01336362238D013B23851D
:10161C00638D9BB2013B9BB2638523E02268136808
:10162C0043F40073136023681A69636A1A70636A5F
:10163C0001336362238D013B2385638D9BB2013B98
:10164C009BB2638562B623681A69636A1A70636A0F
:10165C0001336362238D013B2385638D9BB2013B78
:10166C009BB26385238D002B5DD0032B32D8012BCD
:10167C008CD0022BA2D00095334600221449204670
:10168C00FFF74FFB002861D12268136823F48063B5
:10169C00136072B623681A69636A1A70636A01333D
:1016AC006362238D013B2385638D9BB2013B9BB20F
:1016BC00638500953346002205492046FFF731FB30
:1016CC000028ABD00127D8E6020010000000FFFF75
:1016DC00040001002A4631462046FFF701FD002890
:1016EC0036D123681A69636A1A70626A531C636282
:1016FC00238D013B2385638D9BB2013B9BB263859C
:10170C002368596911F0040FACD01B695370636ADC
:10171C0001336362238D013B2385638D9BB2013BB7
:10172C009BB263859EE7202384F83D30002384F828
:10173C003E3084F83C30A0E602279EE602279CE669
:10174C0001279AE6012798E6012796E6012794E6F9
:10175C00012792E610B504460E4B18784FF47A73B5
:10176C00B3FBF0F30C4A1068B0FBF3F000F094FDFF
:10177C0068B90F2C01D901200AE0002221464FF054
:10178C00FF3000F047FD054B1C60002000E00120FD
:10179C0010BD00BF00000020080000200400002045
:1017AC0008B5074A136843F010031360032000F0D8
:1017BC001FFD0020FFF7CEFF01F0F0F9002008BD5F
:1017CC0000200240034A1168034B1B780B44136042
:1017DC00704700BF1002002000000020014B186869
:1017EC00704700BF1002002038B50446FFF7F6FF23
:1017FC000546B4F1FF3F02D0044B1B781C44FFF7A5
:10180C00EDFF401BA042FAD338BD00BF0000002002
:10181C0082B0084B1B68084AA2FB03235B0A00FB3F
:10182C0003F3019300BF019B5A1E0192002BF9D1C7
:10183C0002B0704708000020D34D6210002800F061
:10184C00F18170B582B00446036813F0010F2CD0FF
:10185C00AA4B5B6803F00C03042B1DD0A74B5B68F1
:10186C0003F00C03082B12D06368B3F5803F41D012
:10187C00002B55D103F1804303F504331A6822F48D
:10188C0080321A601A6822F480221A6037E09B4B6F
:10189C005B6813F4803FE7D0984B1B6813F4003F50
:1018AC0003D06368002B00F0BF81236813F0020F94
:1018BC0075D0924B5B6813F00C0F5FD08F4B5B684D
:1018CC0003F00C03082B54D02369002B00F0898003
:1018DC008B4B01221A60FFF781FF0546874B1B6873
:1018EC0013F0020F74D1FFF779FF401B0228F5D9D2
:1018FC0003209EE1814A136843F4803313606368CC
:10190C0043B3FFF76BFF05467C4B1B6813F4003F9A
:10191C00CBD1FFF763FF401B6428F5D9032088E186
:10192C00B3F5A02F09D0754B1A6822F480321A60D7
:10193C001A6822F480221A60E1E703F18043A3F5D0
:10194C003C331A6842F480221A601A6842F48032DE
:10195C001A60D4E7FFF742FF0546684B1B6813F487
:10196C00003FA2D0FFF73AFF401B6428F5D90320B3
:10197C005FE1624B5B6813F4803FA5D15F4B1B6842
:10198C0013F0020F03D02369012B40F04F815B4A07
:10199C00136823F0F803616943EAC10313602368F9
:1019AC0013F0080F32D0A369002B45D0554B012200
:1019BC001A60FFF713FF0546504B5B6A13F0020FDA
:1019CC0021D1FFF70BFF401B0228F5D9032030E192
:1019DC004A4A136823F0F803616943EAC1031360B0
:1019EC00DDE7474B00221A60FFF7F8FE0546434B34
:1019FC001B6813F0020FD2D0FFF7F0FE401B022839
:101A0C00F5D9032015E10120FFF702FF236813F03D
:101A1C00040F00F09780394BDB6913F0805F1DD108
:101A2C00364BDA6942F08052DA61DB6903F080539D
:101A3C000193019B012512E0324B00221A60FFF743
:101A4C00CDFE05462D4B5B6A13F0020FDED0FFF77F
:101A5C00C5FE401B0228F5D90320EAE000252A4BDD
:101A6C001B6813F4807F11D0E368012B22D0002B6C
:101A7C0038D103F1804303F504331A6A22F00102D2
:101A8C001A621A6A22F004021A6218E01E4A1368DB
:101A9C0043F480731360FFF7A1FE06461A4B1B68D4
:101AAC0013F4807FE0D1FFF799FE801B6428F5D9F1
:101ABC000320BEE0114A136A43F001031362E3688A
:101ACC0073B3FFF78BFE06460C4B1B6A13F0020F29
:101ADC0037D1FFF783FE801B41F288339842F3D94C
:101AEC000320A6E0052B11D0044B1A6A22F0010248
:101AFC001A621A6A22F004021A62E0E7001002402D
:101B0C000000424280044242007000404D4B1A6A71
:101B1C0042F004021A621A6A42F001021A62CEE71B
:101B2C00FFF75CFE0646474B1B6A13F0020F08D00A
:101B3C00FFF754FE801B41F288339842F3D90320FF
:101B4C0077E0E5B9E369002B72D03E4A526802F0A7
:101B5C000C02082A56D0022B17D03B4B00221A60DD
:101B6C00FFF73CFE0446374B1B6813F0007F47D051
:101B7C00FFF734FE001B0228F5D9032059E0314A47
:101B8C00D36923F08053D361DCE72F4B00221A601A
:101B9C00FFF724FE05462B4B1B6813F0007F06D085
:101BAC00FFF71CFE401B0228F5D9032041E0236AF5
:101BBC00B3F5803F1AD023494B6823F47413226A7F
:101BCC00606A024313434B601F4B01221A60FFF7FC
:101BDC0005FE04461B4B1B6813F0007F0ED1FFF76C
:101BEC00FDFD001B0228F5D9032022E0154A53689D
:101BFC0023F40033A1680B435360DCE7002018E0AA
:101C0C00002016E0012B16D00E4B5B6803F48031DC
:101C1C00226A914211D103F47013626A93420ED17D
:101C2C00002006E001207047012002E0012000E0C6
:101C3C00002002B070BD0120FBE70120F9E7012074
:101C4C00F7E700BF001002406000424286B0164B1E
:101C5C000FCB0DF1180C0CE90F0040F20123ADF87D
:101C6C000430124B5B6803F00C02082A02D01048B7
:101C7C0006B07047C3F38342624412F8102C13F47D
:101C8C00803F0CD0094B5B68C3F34043634413F8AB
:101C9C00143C074800FB02F0B0FBF3F0E8E7054802
:101CAC0000FB02F0E4E700BF6037000800100240C0
:101CBC0000127A0000093D00002800F0A08070B5E9
:101CCC000D460446524B1B6803F007038B420BD2A4
:101CDC004F4A136823F007030B431360136803F098
:101CEC0007038B4240F08D80236813F0020F17D04E
:101CFC0013F0040F04D0474A536843F4E063536075
:101D0C00236813F0080F04D0424A536843F460531D
:101D1C005360404A536823F0F003A1680B435360AF
:101D2C00236813F0010F31D06368012B20D0022BF4
:101D3C0025D0384A126812F0020F64D035494A682F
:101D4C0022F0030213434B60FFF748FD0646314B6C
:101D5C005B6803F00C036268B3EB820F16D0FFF7DD
:101D6C003DFD801B41F288339842F0D9032045E0B9
:101D7C00284A126812F4003FE0D101203EE0254AC7
:101D8C00126812F0007FD9D1012037E0204B1B687C
:101D9C0003F00703AB420AD91D4A136823F007036B
:101DAC002B431360136803F00703AB422DD1236858
:101DBC0013F0040F06D0174A536823F4E063E1686C
:101DCC000B435360236813F0080F07D0114A536874
:101DDC0023F46053216943EAC1035360FFF736FFD4
:101DEC000C4B5B68C3F303130B4AD35CD8400B4B0F
:101DFC0018600B4B1868FFF7ADFC002070BD01207C
:101E0C0070470120FAE70120F8E70120F6E700BF50
:101E1C000020024000100240743700080800002027
:101E2C0004000020014B1868704700BF0800002018
:101E3C0008B5FFF7F7FF044B5B68C3F30223034AB3
:101E4C00D35CD84008BD00BF0010024084370008A6
:101E5C00F0B482B000252C46A3E07F4FBB4210D0DB
:101E6C0007D97E4FBB420CD007F58037BB4208D058
:101E7C0013E0A7F58017BB4203D007F57027BB42D0
:101E8C0007D18B68002B58D0012B51D0426108250B
:101E9C0003E0A7F58017BB42F3D0FF2E4FD8844642
:101EAC00FF2E4FD8A200DCF800300F27974023EA12
:101EBC00070305FA02F21343CCF800304B6813F019
:101ECC00805F6DD0664B9A6942F001029A619B6902
:101EDC0003F001030193019BA208971C614B53F87B
:101EEC00273004F00307BF004FF00F0C0CFA07FC6F
:101EFC0023EA0C0C5C4B98422AD003F58063984281
:101F0C0000F08A8003F58063984200F0878003F527
:101F1C00806398421AD004231BE0CD68BDE7CD68DE
:101F2C000435BAE7CD680835B7E7CD680C35B4E7AA
:101F3C0002610825B1E70025AFE70425ADE700F104
:101F4C00040CADE7A4F108029200ACE7032300E017
:101F5C000023BB4043EA0C030232424F47F82230C5
:101F6C004B6813F4803F5BD0404A136833431360D3
:101F7C004B6813F4003F59D03C4A536833435360C9
:101F8C004B6813F4801F57D0384A936833439360DF
:101F9C004B6813F4001F55D0344AD3681E43D660E7
:101FAC0001340B6833FA04F252D00122A24003EA46
:101FBC00020632EA0303F3D14B68122B3FF64DAF06
:101FCC00122B3FF66AAF01A757F823F08F1E0008BB
:101FDC00271F0008311F0008431F0008A71E000818
:101FEC00A71E0008A71E0008A71E0008A71E0008B1
:101FFC00A71E0008A71E0008A71E0008A71E0008A1
:10200C00A71E0008A71E0008A71E0008A71E000890
:10201C002B1F0008371F000801239AE7022398E7BB
:10202C00124A136823EA06031360A1E70F4A5368A8
:10203C0023EA06035360A3E70C4A936823EA0603DA
:10204C009360A5E7094AD36823EA0606D660A7E79A
:10205C0002B0F0BC704700BF00002210000031102D
:10206C000010024000000140000801400004014043
:10207C000AB101617047090401617047C3680B42E2
:10208C0001D04161704701617047000008B5054BF4
:10209C005B69034200D108BD024B586100F0A4FDFE
:1020AC00F9E700BF000401402DE9F84305460F464F
:1020BC0016469946DDF820802C68246837EA04031C
:1020CC000CBF01240024B4421FD1B8F1FF3FF3D060
:1020DC00B8F1000F05D0FFF781FBA0EB09004045DC
:1020EC00EAD92A68D36823F4D073D3602A68536979
:1020FC0023F001035361202385F8393085F83A30F9
:10210C00002385F83830032000E00020BDE8F88378
:10211C002DE9F04182B01E4690F83930DBB2202B0D
:10212C0058D104460D469046002957D0002A57D066
:10213C0090F83830012B55D0012380F8383000232B
:10214C00C363212380F83930FFF748FB0746A4F816
:10215C002480A4F8268017E000963B4600228021BC
:10216C002046FFF7A1FF00283ED12B882268C3F33D
:10217C000803536023690BB9023505E0013503E010
:10218C0015F8012B23685A60E38C9BB29BB1E28C4F
:10219C0092B2013A92B2E284A368B3F5805FDBD0CD
:1021AC0000963B46002280212046FFF77DFF002849
:1021BC00E6D003200FE000963B460022402120464B
:1021CC00FFF772FF90B9202384F83930002384F88C
:1021DC00383000E0022002B0BDE8F0810120FAE7BF
:1021EC000120F8E70220F6E70320F4E70320F2E7EA
:1021FC00074AD36823F4E0631B041B0C000200F4B1
:10220C00E060034343F0BF6343F40033D360704793
:10221C0000ED00E030B4174BDB68C3F30223C3F1CD
:10222C000704042C28BF04241D1D062D18D9033BBC
:10223C004FF0FF3505FA04F421EA0401994005FA40
:10224C0003F322EA0303194300280BDB0901C9B28B
:10225C0000F1604000F5614080F8001330BC70471D
:10226C000023E5E700F00F000901C9B2024B195435
:10227C00F4E700BF00ED00E014ED00E0002807DB00
:10228C0000F01F02400901239340024A42F820301B
:10229C00704700BF00E100E00138B0F1807F0AD246
:1022AC00064B5860064AF02182F8231000209860F3
:1022BC0007221A6070470120704700BF10E000E051
:1022CC0000ED00E02DE9F0410646884617461D4614
:1022DC003468A46838EA04030CBF01240024BC420F
:1022EC0037D0B5F1FF3FF3D0FFF778FA069BC01A51
:1022FC00A84201D2002DEBD13268536823F0E003E1
:10230C0053607368B3F5827F0BD0B36AB3F5005F8B
:10231C0014D0012386F85130002386F85030032066
:10232C0018E0B368B3F5004F02D0B3F5806FECD171
:10233C003268136823F040031360E6E732681368D1
:10234C0023F4005313603268136843F40053136092
:10235C00DFE70020BDE8F08110B582B004460B46E3
:10236C00009200228021FFF7ADFF08B902B010BD2A
:10237C00636D43F0200363650320F7E77047002883
:10238C0039D010B504460023836290F85130002BED
:10239C002CD0022384F851302268136823F04003B8
:1023AC0013606368A2681343E26813432269134302
:1023BC0062691343A26902F400721343E269134386
:1023CC00226A1343A16A22680B431360638B226851
:1023DC0003F0040353602268D36923F40063D361D0
:1023EC0000206065012384F8513010BD80F8503016
:1023FC00FFF7C4FFCDE7012070472DE9F04383B010
:10240C001F460A9D90F85030012B00F010810446B5
:10241C0088469146012380F85030FFF7DFF90646D5
:10242C0094F85130DBB26268012B0AD0B2F5827F8E
:10243C0040F0E380A268002A40F0E980042B40F0D1
:10244C00E880B8F1000F00F0E680B9F1000F00F061
:10245C00E480002F00F0E38094F85130DBB2042BC1
:10246C0002D0052384F8513000236365C4F83890FA
:10247C00E787A787C4F83080E786A7862364636460
:10248C0023681A6812F0400F03D11A6842F0400218
:10249C001A60E368B3F5006F11D063680BB1012FBC
:1024AC000BD1226B236812781A73236B01332363CD
:1024BC00E38E9BB2013B9BB2E38601276BE0636822
:1024CC000BB1012F0BD1226B23681288DA60236BBE
:1024DC0002332363E38E9BB2013B9BB2E38601275D
:1024EC001CE023689A6812F0010F0ED0E28F92B2B2
:1024FC005AB1DA68A36B1A80A36B0233A363E38F20
:10250C009BB2013B9BB2E3870127FFF767F9801B66
:10251C00A84203D3B5F1FF3F40F08380E38E9BB21A
:10252C001BB9E38F9BB2002B53D023689A6812F02F
:10253C00020FD6D0E28E92B2002AD2D0002FD0D089
:10254C00226B1288DA60236B02332363E38E9BB217
:10255C00013B9BB2E3860027C3E723689A6812F01D
:10256C00010F0ED0E28F92B25AB1DA68A36B1A70D7
:10257C00A36B0133A363E38F9BB2013B9BB2E38755
:10258C000127FFF72BF9831BAB4202D3B5F1FF3FB9
:10259C0049D1002D49D0E38E9BB213B9E38F9BB286
:1025AC00BBB123689A6812F0020FD6D0E28E92B2B9
:1025BC00002AD2D0002FD0D0226B12781A73236B42
:1025CC0001332363E38E9BB2013B9BB2E38600276E
:1025DC00C3E7324629462046FFF7BEFE48B9A3683A
:1025EC0063B901932368DA6801929B680193019B9C
:1025FC0004E020236365012000E00220012384F81D
:10260C005130002384F8503003B0BDE8F083022031
:10261C00F4E70220F2E70120F0E70120EEE70120C9
:10262C00ECE70320EAE70320E8E70320E6E70220D3
:10263C00EAE7000070B4036A23F001030362036A43
:10264C004668826922F073020C6844EA020523F0A2
:10265C0002028B6813430D4CA04209D00B4CA042D4
:10266C000DD0466085614A684263036270BC704756
:10267C0023F00803CA68134323F00403EEE726F49F
:10268C0040764A6932438E691643EAE7002C0140D2
:10269C0030B4036A23F480730362036A4568C26929
:1026AC0022F073020C68224323F400738C6843EA13
:1026BC0004230F4CA04209D00D4CA0420ED0456013
:1026CC00C2614A68C263036230BC704723F4006382
:1026DC00CC6843EA042323F48063EDE725F44055EA
:1026EC004C6945EA04158C6945EA0415E7E700BF17
:1026FC00002C014030B4036A23F480530362036A54
:10270C004468C26922F4E6420D6842EA052223F4C9
:10271C0000538D6843EA0533074DA84206D0446048
:10272C00C2614A680264036230BC704724F480447E
:10273C004D6944EA8514F2E7002C014030B4036A79
:10274C00056A25F001050562846924F0F00444EA69
:10275C00021423F00A030B438461036230BC7047FC
:10276C0030B4056A25F0100505628469036A24F407
:10277C00704444EA023423F0A00343EA0113846159
:10278C00036230BC7047836823F070030B4343F043
:10279C00070383607047704703681B4A90420AD056
:1027AC00B0F1804F07D0A2F59432904203D002F5DD
:1027BC008062904203D123F070034A681343124A9B
:1027CC0090420AD0B0F1804F07D0A2F594329042DB
:1027DC0003D002F58062904203D123F44073CA689F
:1027EC00134323F080034A69134303608B68C3626D
:1027FC000B688362044B984202D0012343617047FB
:10280C000B690363F9E700BF002C0140B0B110B5B0
:10281C00044690F83D3063B1022384F83D302146E4
:10282C0051F8040BFFF7B8FF012384F83D3000206A
:10283C0010BD80F83C3000F0D3F9EDE70120704773
:10284C00B0B110B5044690F83D3063B1022384F862
:10285C003D30214651F8040BFFF79EFF012384F80D
:10286C003D30002010BD80F83C30FFF794FFEDE7C1
:10287C000120704730B4036A23F010030362036A2B
:10288C004468826922F4E6420D6842EA052223F08C
:10289C0020038D6843EA05130E4DA84209D00D4D57
:1028AC00A8420ED0446082614A688263036230BCE5
:1028BC00704723F08003CD6843EA051323F04003EF
:1028CC00EDE724F440644D6944EA85048D6944EADB
:1028DC008504E7E7002C014038B590F83C30012B1B
:1028EC0066D004460D46012380F83C30022380F864
:1028FC003D300C2A1AD8DFE802F0071919192019F3
:10290C0019193419191947000068FFF793FE22684A
:10291C00936943F0080393612268936923F00403DD
:10292C0093612268936929690B439361012384F8AD
:10293C003D30002084F83C0038BD0068FFF79AFF5A
:10294C002268936943F4006393612268936923F4CA
:10295C008063936122689369296943EA0123936137
:10296C00E4E70068FFF794FE2268D36943F008039C
:10297C00D3612268D36923F00403D3612268D3693D
:10298C0029690B43D361D1E70068FFF7B3FE2268D6
:10299C00D36943F40063D3612268D36923F4806361
:1029AC00D3612268D369296943EA0123D361BDE766
:1029BC000220C1E710B4846824F47F4442EA032265
:1029CC000A432243826010BC704790F83C30012BC4
:1029DC0066D010B50446012380F83C30022380F801
:1029EC003D300268936823F47F4323F077039360B0
:1029FC000B68602B40D022D8402B47D00BD9502BE2
:102A0C000ED1CA6849680068FFF798FE502120680B
:102A1C00FFF7B9FE04E0202B0CD008D9302B09D0DD
:102A2C00012384F83D30002084F83C0010BD0BB12C
:102A3C00102BF5D119462068FFF7A5FEF0E7702B97
:102A4C000ED0B3F5005FEBD1CB684A68896800689B
:102A5C00FFF7B0FF2268936843F480439360DFE78D
:102A6C00CB684A6889680068FFF7A4FF22689368FE
:102A7C0043F077039360D3E7CA6849680068FFF7AF
:102A8C006FFE60212068FFF77EFEC9E7CA684968BF
:102A9C000068FFF753FE40212068FFF774FEBFE784
:102AAC000220704710B401F01F01012303FA01F456
:102ABC00036A23EA04030362036A02FA01F10B437B
:102ACC00036210BC7047000010B504460122006878
:102ADC00FFF7E8FF23680A4A93420BD022689368F9
:102AEC0003F00703062B03D0136843F001031360B4
:102AFC00002010BD5A6C42F400425A64EEE700BF4D
:102B0C00002C014090F83C30012B1CD070B40126F5
:102B1C0080F83C60022380F83D3002685568936869
:102B2C0025F070050C682C4323F080054B682B4373
:102B3C0054600268936080F83D60002380F83C305C
:102B4C00184670BC70470220704790F83C30012B3F
:102B5C0022D0012380F83C30CB6823F440738A6880
:102B6C00134323F480634A68134323F400630A6815
:102B7C00134323F480530A69134323F400534A6923
:102B8C00134323F48043CA6913430268536400233C
:102B9C0080F83C30184670470220704782B00E4BCC
:102BAC009A6942F001029A619A6902F0010200925C
:102BBC00009ADA6942F08052DA61DB6903F08053E3
:102BCC000193019B054A536823F0E06343F00073C3
:102BDC00536002B0704700BF00100240000001407B
:102BEC0008B5FDF7F7FD08BD08B5FDF7C9FB08BD35
:102BFC0020281BD803B2002B31D001381F2813D842
:102C0C00DFE800F0102F12251212122712121212E6
:102C1C001212122912121212121212121212121271
:102C2C001212122B0620704728207047B0F5807FB7
:102C3C0019D004D9B0F5007F07D028207047402860
:102C4C0013D0802813D11720704717207047082005
:102C5C007047092070470A207047172070472820BA
:102C6C00704707207047172070471720704728209F
:102C7C007047FEE708B5084B1B7803B108BDFDF79C
:102C8C0029FDFDF797FCFDF7B5FBFDF7EDFA024BBF
:102C9C0001221A70F2E700BF6401002000B591B068
:102CAC0000230793089309930C93019302930393C6
:102CBC00049305930222069201210A9110210B9193
:102CCC000D920E934FF460130F9306A8FEF7B6FD0A
:102CDC0080B90F23019302210291002303934FF437
:102CEC0080620492059301A8FEF7E6FF28B911B0A3
:102CFC005DF804FBFFF7BDFFEBE7FFF7BAFFF6E764
:102D0C00704700BFFDE7FEE7FEE7FEE77047704740
:102D1C00704708B5FEF756FD08BD08B50120FFF752
:102D2C00B5F908BD08B50220FFF7B0F908BD08B524
:102D3C000420FFF7ABF908BD08B50820FFF7A6F98A
:102D4C0008BD08B51020FFF7A1F908BD08B5202073
:102D5C00FFF79CF94020FFF799F98020FFF796F9CF
:102D6C004FF48070FFF792F94FF40070FFF78EF973
:102D7C0008BD08B54FF48060FFF788F94FF4006088
:102D8C00FFF784F94FF48050FFF780F94FF40050AF
:102D9C00FFF77CF94FF48040FFF778F94FF40040CF
:102DAC00FFF774F908BD00000F4B1A6842F00102DE
:102DBC001A6059680D4A0A405A601A6822F08472E7
:102DCC0022F480321A601A6822F480221A605A683F
:102DDC0022F4FE025A604FF41F029A60044B4FF02B
:102DEC0000629A60704700BF001002400000FFF8BC
:102DFC0000ED00E0002103E00B4B5B584350043125
:102E0C000A480B4B42189A42F6D30A4A02E00023B6
:102E1C0042F8043B084B9A42F9D3FFF7C5FF00F088
:102E2C000FF8FDF795F97047C8370008000000202F
:102E3C00700000207000002024020020FEE700003B
:102E4C0070B500260C4D0D4C641BA410A64209D184
:102E5C0000F06AFC00260A4D0A4C641BA410A64222
:102E6C0005D170BD55F8043B98470136EEE755F88F
:102E7C00043B98470136F2E7C0370008C03700081A
:102E8C00C0370008C43700080A44914200F1FF33F0
:102E9C0000D1704710B511F8014B914203F8014F66
:102EAC00F9D110BD03460244934200D1704703F898
:102EBC00011BF9E700B59BB0009104916FF0004144
:102ECC000591029105490391694600F06FF80022C3
:102EDC00009B1A701BB05DF804FB00BF0802FFFFDB
:102EEC0013460A46014602480068FFF7E3BF00BFDD
:102EFC000C0000202DE9F0478E6882469E420C465D
:102F0C0090461F4638D88A8912F4906F32D02568C3
:102F1C0009690133A5EB010965694B4405EB4505CE
:102F2C0005EBD5756D109D4238BF1D46530531D547
:102F3C00294600F045FB064650B90C234FF0FF30F4
:102F4C00CAF80030A38943F04003A381BDE8F087A1
:102F5C004A462169FFF798FFA38923F4906343F055
:102F6C008003A38126614E4426603E466561A5EB35
:102F7C000905A560BE4200D93E463246414620684E
:102F8C0000F0B8FAA36822689B1B32440020A360AF
:102F9C002260DBE72A4600F06DFB06460028E1D1F3
:102FAC005046216900F0C0FAC7E700002DE9F04F48
:102FBC0098468B8907461B060D4614469DB00ED5C8
:102FCC000B6963B9402100F0FBFA2860286120B935
:102FDC000C233B604FF0FF30D1E040236B610023AA
:102FEC00099320238DF8293030234FF00109CDF8B7
:102FFC000C80DFF8A4818DF82A3023469A4613F80A
:10300C00012B0AB1252AF9D1BAEB040B0BD05B4684
:10301C00224629463846FFF76DFF013000F0AA80A2
:10302C00099A5A4409929AF80030002B00F0A280B9
:10303C0000234FF0FF32CDE905230AF1010A049376
:10304C0007938DF853301A935446052214F8011B3C
:10305C00514800F041FA049AD8B9D00644BF202355
:10306C008DF85330110744BF2B238DF853309AF849
:10307C0000302A2B15D0544600204FF00A0C079A2A
:10308C00214611F8013B303B092B4ED9B0B10792C8
:10309C0014E0A0EB080309FA03F31343A2460493CC
:1030AC00D2E7039B191D1B680391002BBBBF5B422E
:1030BC0042F0020207930793B8BF049223782E2B99
:1030CC000CD163782A2B35D1039B02341A1D1B6853
:1030DC000392002BB8BF4FF0FF330593DFF8C8A065
:1030EC0003225046217800F0F7F940B14023A0EBC1
:1030FC000A0003FA00F0049B01340343049314F810
:10310C00011B062225488DF8281000F0E5F900284F
:10311C0038D0234B1BBB039B073323F00703083327
:10312C000393099B3344099367E70C4601200CFB7E
:10313C000232A5E700234FF00A0C1946013405931F
:10314C00204610F8012B303A092A03D9002BC5D0A0
:10315C000591C3E7044601230CFB0121F0E703AB07
:10316C0000932A4638460F4B04A9AFF30080421C4B
:10317C000646D6D1AB895B063FF52CAF09981DB03E
:10318C00BDE8F08F03AB00932A463846054B04A9E3
:10319C0000F07CF8EBE700BF8C370008963700088E
:1031AC0000000000012F0008923700082DE9F047BD
:1031BC00164699468A680B6907469342B8BF134670
:1031CC00336091F843200C46DDF820800AB10133BE
:1031DC0033602368990642BF336802333360256835
:1031EC0015F0060506D104F1190AE36832689B1A3A
:1031FC00AB4228DC94F84320131E226818BF01232D
:10320C0092062DD44946384604F14302C04701309A
:10321C0020D02368E56803F00603042B18BF0025B3
:10322C0032684FF00006A36808BFAD1A226908BFC8
:10323C0025EAE5759342C4BF9B1AED181A34B542C2
:10324C001AD1002008E00123524649463846C047AF
:10325C00013003D14FF0FF30BDE8F0870135C4E7F2
:10326C003020E11881F843005A1C94F84510224490
:10327C00023382F84310C5E70123224649463846FB
:10328C00C0470130E6D00136D9E700002DE9FF47F1
:10329C000C46277E9146782F80469A460C9904F16D
:1032AC00430207D8622F0AD8002F00F0D980582F7C
:1032BC0000F0A48004F1420684F842703AE0A7F1D1
:1032CC006303152BF6D801A050F823F03133000816
:1032DC0045330008C1320008C1320008C132000871
:1032EC00C132000845330008C1320008C132000861
:1032FC00C1320008C132000853340008753300088D
:10330C0035340008C1320008C13200087534000899
:10331C00C132000875330008C1320008C132000800
:10332C003D3400080B6804F142061A1D1B680A6044
:10333C0084F842300123A4E0256808682E0600F1C9
:10334C0004030AD505680B60002D03DA2D236D42AA
:10335C0084F843300A235E4819E015F0400F0568E5
:10336C000B6018BF2DB2EFE70B682568181D0860BD
:10337C00280601D51D6802E06906FBD51D886F2F54
:10338C000CBF08230A235248002184F843106668B6
:10339C00002EA8BF2168A660A4BF21F00401216003
:1033AC000DB9002E4DD01646B5FBF3F103FB1157AA
:1033BC00C75D06F8017D2F46BB420D46F4D9082B9C
:1033CC000BD12368DF0708D5236961689942DEBFFA
:1033DC00302306F8013C06F1FF36921B22614B4666
:1033EC0021464046CDF800A003AAFFF7DFFE0130CE
:1033FC004CD14FF0FF3004B0BDE8F087344884F86E
:10340C0045700E68236856F8045B1F060E6014D5D1
:10341C00D90744BF43F0200323601DB9236823F070
:10342C00200323601023AFE7236843F020032360BD
:10343C007823284884F84530E3E75E0648BFADB2F0
:10344C00E6E71646BBE70B6826681D1D60690D6034
:10345C0035061B6801D5186002E07106FBD5188093
:10346C00002316462361BAE70B681A1D0A601E6812
:10347C0000213046626800F02FF808B1801B6060B4
:10348C0063682361002384F84330A8E73246494639
:10349C0040462369D0470130ABD023689B0713D437
:1034AC00E068039B9842B8BF1846A4E70123324654
:1034BC0049464046D04701309BD00135E36803991B
:1034CC005B1AAB42F2DCEBE7002504F11906F5E7D9
:1034DC009D370008AE370008034610B5C9B2024448
:1034EC009342184601D1002003E0047801338C424A
:1034FC00F6D110BD884210B501EB020402D984420A
:10350C00234607D8431EA14208D011F8012B03F81B
:10351C00012FF8E7014602448A4200D110BD13F88E
:10352C00014D02F8014DF7E738B50546002943D0A7
:10353C0051F8043C0C1F002BB8BFE41800F0D0F875
:10354C001E4A1368104633B9636014602846BDE800
:10355C00384000F0CBB8A3420AD9216862189342D4
:10356C0001BF1A685B685218226063600460EDE763
:10357C001A465B680BB1A342FAD911685018A042E5
:10358C000BD120680144501883421160DED11868B9
:10359C005B68014411605360D8E702D90C232B609F
:1035AC00D4E7206821188B4201BF19685B680918A1
:1035BC00216063605460C9E738BD00BF680100201A
:1035CC00F8B5CD1C25F0030508350C2D38BF0C259E
:1035DC00002D064601DBA94203D90C2333600020E1
:1035EC00F8BD00F07DF821490A6814469CB9204FBB
:1035FC003B6823B92146304600F062F83860294612
:10360C00304600F05DF8431C23D10C233046336068
:10361C0000F06CF8E3E723685B1B17D40B2B03D982
:10362C0023601C44256004E06368A2420CBF0B605D
:10363C005360304600F05AF804F10B00231D20F0C3
:10364C000700C21ACCD01B1AA350C9E722466468E3
:10365C00CCE7C41C24F00304A042E3D0211A30466A
:10366C0000F02EF80130DDD1CFE700BF680100205B
:10367C006C010020F8B5074614460E4621B91146D8
:10368C00BDE8F840FFF79CBF22B9FFF74DFF254678
:10369C002846F8BD00F030F8A0420FD2214638463B
:1036AC00FFF78EFF05460028F2D031462246FFF781
:1036BC00EBFB31463846FFF737FFE9E73546E7E7DE
:1036CC0038B50023054D044608462B6000F01EF863
:1036DC00431C02D12B6803B1236038BD14020020B7
:1036EC00014800F011B800BF1C020020014800F096
:1036FC000CB800BF1C02002051F8043C181F002B12
:10370C00BCBF0B58C018704770477047044A054936
:10371C001368002B08BF0B461844106018467047FE
:10372C007001002028020020F8B500BFF8BC08BCCE
:10373C009E467047F8B500BFF8BC08BC9E46704763
:10374C0025640A00E8E8F1F0E10000000A0B0C0D1A
:10375C000E0F100002030405060708090A0B0C0DD6
:10376C000E0F101000000000000000000000000010
:10377C00010203040607080900000000010203040B
:10378C00232D302B2000686C4C006566674546473E
:10379C0000303132333435363738394142434445C1
:1037AC004600303132333435363738396162636430
:0437BC00656600003E
:0437C00031010008CB
:0437C4000D010008EB
:1037C80001000000100000000024F4001000002098
:1037D80000000000000000000000000000000000E1
:1037E80000000000000000000000000000000000D1
:1037F80000000000000000000000000000000000C1
:1038080000000000000000000000000000000000B0
:1038180000000000000000000000000000000000A0
:103828000000000000000000000000000000000090
:0400000508002E01C0
:00000001FF
